:0A0000000C9442000C9400000C94D4
:10000A0000000C9400000C9400000C9400000C9466
:10001A0000000C9400000C9400000C9400000C9456
:10002A0000000C9400000C9400000C9400000C9446
:10003A006F000C9400000C9400000C9400000C94C7
:10004A0000000C9400000C94000054656D70203D73
:10005A002025342E316600002D4E414E000080C00E
:10006A0001002D4E414E00494E460000020060013B
:10007A006800010064016A000000F894EE27ECBBF6
:10008A00F1E0FBBFEBBFE5BF8DE0A2E0BB27ED933C
:10009A008A95E9F780E094E0A0E6ED930197E9F705
:1000AA00E6E7F0E085919591009761F0A591B59109
:1000BA0005901590BF01F00105900D920197E1F7A7
:1000CA00FB01F0CFEFE5EDBFE4E0EEBFC0E6D1E023
:1000DA000C94CF000A921A92FA926A937A938A93AC
:1000EA009A93AA93BA93EA93FA93EFB7EA93649727
:1000FA001A930A9304B115B1F801662777270E946B
:10010A006B07AAE0B7ED83E290E40E94F507DF01EE
:10011A00CB01E0E0F0E060E874E40E944308DF010C
:10012A00CB01EAE0F7ED63E27CE30E944308EA8B45
:10013A00FB8B6C8B7D8B0E948604FE013296FA93B0
:10014A00EA93E4E5F0E0FA93EA93EE89FF89688D91
:10015A00798D0E942C0984E00E9425042896DE01EC
:10016A0012960E94A704A4E6B0E00E94F506EFECFE
:10017A00E6B9198108816696E991EFBFF991E9918B
:10018A00B991A9919991899179916991F990199067
:10019A0009901895E0E0EABBEBBBE7BBE8BBE4BB20
:1001AA00E5BBE1BBE2BBE3BFE2BFECBFEFBDEEBD27
:1001BA00EDBDECBDE7BDE6BDEBBDEABDE9BDE8BD01
:1001CA00E2BDE5BDE4BDE3BDE9BFE5BFE4BFEAB911
:1001DA00E0E8E8B9E0ECE7B9EFE8E6B9E0E0E0BF6B
:1001EA00EDB9E6BFA0E10E94B8047894EFECE6B955
:1001FA00FFCFFFCFBA93AA931A930A93AA81BB811E
:10020A0012960E941309309729F1AA81BB8114968C
:10021A000E9413098F01309761F00230E0E01E0757
:10022A0080F0F80131978F01AA81BB811496ED9372
:10023A00FC93AA81BB8112960E94F4053197AC8186
:10024A00A083AA81BB810E941309FF2312F00E9496
:10025A00F40506C0AA81BB81EFEFFFEFED93FC9393
:10026A0019810881259608950E94FA05E0E8EA8333
:10027A00EFE3EB830E944909EE85FF85EF3FAFEF7D
:10028A00FA0749F4E885F985FA93EA93A2E6B0E019
:10029A000E94E504B7C0EF3FAFE7FA0749F4E885E3
:1002AA00F985FA93EA93A3E6B0E00E94E504AAC0AE
:1002BA00AB85A73010F0E6E0EB871B85E12F1150E4
:1002CA00E03019F00E940106F9CFEC85FD856E85B4
:1002DA007F850E94430921F430E00E9401062DC067
:1002EA003B850E94100609F008F40BC00E94010623
:1002FA000E94100628F00E941B060E942006F8CFD2
:10030A000DC00E94100640F40E941B060E942C0693
:10031A000E9433063150F5CF0E940106EC85FD8517
:10032A006E857F850E9438060E9433060E94100659
:10033A0020F00E941B060E94200610E0EB85E117C0
:10034A00A8F1AC81BD818E819F810E943F060E94E7
:10035A003806DF01CB010E943C05EC83FD836E83E6
:10036A007F830E941B060E9443080E9432070E2FB9
:10037A000E9446060E944D06FF27662777270E949D
:10038A006B07AC81BD818E819F810E94F5070E9417
:10039A001B060E9452060E943306E12F1F5FE030BF
:1003AA0069F60E944606EEE2EC93C8CF0E94570611
:1003BA003197AA85A08330302CF43195A885B98568
:1003CA00EDE203C0A885B985EBE2EC930E945706DB
:1003DA000E9457063197BF01A32FEAE00E94CD0879
:1003EA00E05DDB01EC930E9457063197BF01A32F12
:1003FA00EAE00E94F708E05DDB01EC93A885B98585
:10040A00E0E0EC930E94500960960895BA93AA938B
:10041A00EF9761970E94470910E0FE01E85AFF4FE3
:10042A000190F081E02DE887F987FE01EA5AFF4F33
:10043A000190F081E02DEE83FF83AE81BF81E0E081
:10044A00F0E0ED93FC93DE01A45ABF4F0E94F4053D
:10045A003197E4912E2FE03009F4E9C1E12FE03021
:10046A0039F4253211F411E002C00E945D06DEC1A2
:10047A00E130C1F4253219F40E945D06D6C112E0BA
:10048A00E0E0ED8B00E02D3211F401E0CFC12B3218
:10049A0019F4EBE2ED8BCAC1203219F4E0E2ED8BDC
:1004AA00C5C102C0E23039F450E013E0203311F440
:1004BA000068BCC102C0E33091F4203310F02A3343
:1004CA0008F007C0AAE05A9F502DE22FE0535E0FB2
:1004DA00ADC140E02E3211F414E0A8C10FC0E430DF
:1004EA0099F4203310F02A3308F008C00062AAE019
:1004FA004A9F402DE22FE0534E0F98C12C3619F433
:10050A00026015E093C103C0E53009F08FC1E22F04
:10051A00E33659F40E9464060E946B060E94640640
:10052A00A481AA930E94720680C1E53411F0E536CF
:10053A0009F403C0E63609F048C0FE017696EE8754
:10054A00FF870E9478060E9417090E947F060E9470
:10055A008406AD85AA2332F0AD89AB3259F0A032B8
:10056A0081F017C00E9486060E94FF060E947F063D
:10057A00EDE2ED8B07FF05C0ED89EA930E94720652
:10058A0008C0EE85FF853196EE87FF873197AD89E2
:10059A00A08305FF46E0263651F40E9486060E9493
:1005AA002C094A93AB89BC890E94530509C00E9451
:1005BA0086060E942C094A932A93AC89BD8954DE87
:1005CA00FE0176960E948B061EC0E33739F40E941C
:1005DA0084060E9493060E948B060EC0E037C1F47F
:1005EA000E9484060E949306EE87FF87AE85BF8528
:1005FA000E94FE041E2F08600F77403011F0411749
:10060A0008F001C0142F40E0E0E0EC8B30E06DC050
:10061A00E43611F0E93611F4046002C0E537A1F4BA
:10062A00EAE0EC8B01FF08C0E0E0FAEC6AE97BE360
:10063A000E9498061AE022C0E0E1F7E260E070E06A
:10064A000E94980615E01AC0E83511F4086003C044
:10065A00E83709F0EAC0E0E1EC8B01FF08C0E0E00E
:10066A00F0E060E070E10E94980618E007C0E0E060
:10067A00F0E160E070E00E94980614E0403011F06A
:10068A000F7701C041E001FF08C00E9484060E9462
:10069A00780614960E9417090FC002FF07C00E942D
:1006AA0084060E9493060E94BA0806C00E94840625
:1006BA000E94930666277727EA87FB876C877D87E0
:1006CA0002FF12C0AD85AA2342F40E9486060E9448
:1006DA00AC080E947F06EDE2ED8BED89E03019F05F
:1006EA001F5F4F5F01C00B7F342F00FD14C0151729
:1006FA0010F4351708F00FC007FF08C002FF04C046
:10070A000B7F2D89115001C020E301C020E20E9415
:10071A005D065150ECCF141790F4006102FF06C039
:10072A000E949D0609F0515011504150E0E3EA93AE
:10073A000E947206503009F051504150ECCF312FCF
:10074A00EC89E030B9F43030A1F003FF06C0EE8541
:10075A00FF852591EE87FF8705C0AE85BF852D9160
:10076A00AE87BF870E945D06503009F05150315064
:10077A00EACF51C00E94AF060E94D2082E2F2A301B
:10078A0030F003FF02C0295C01C0295A01C0205D74
:10079A0004FD21C0213360F4A889B9898A899B891B
:1007AA00A130E0E0BE07E0E08E07E0E09E0709F432
:1007BA000BC0431740F4531710F000FF01C010C0DC
:1007CA0020E207FF08C020E3006102FF04C00E9484
:1007DA009D0609F051500E945D06503009F05150B3
:1007EA0031500E94AF060E9403090E947F06EC89DD
:1007FA00A889B9898A899B89FF27662777270E9452
:10080A00D2080E949806E889F9896A897B890E9438
:10081A00430909F0AFCF00FF08C0503031F0515002
:10082A00E0E2EA930E947206F8CF10E00CCEAE81A5
:10083A00BF810E9413090E944E09EF966F96089590
:10084A00FF92F82E26970E9449090E94B80630970F
:10085A0019F4EFEFFFEF23C0DE0116960E94A808F5
:10086A008D010E94B806EE83FF83E0E0E887E987FE
:10087A00DE011A960E94A8080E941309FA93EA93C5
:10088A001A930A93EFEFF0E0FA93EA93DE011A96CD
:10089A00BDDD9F01AE81BF81E0E0EC93F9010E94CA
:1008AA0050092A96FF900895AA93E2B3EF70AE2FEB
:1008BA00E881E07FEA2BE2BB82E08A95F1F7929A1F
:1008CA0082E08A95F1F7929882E08A95F1F776C0EC
:1008DA00AA93A881E9DFE881E295E883A881E4DFA9
:1008EA0081E18A95F1F76AC0AA93E881F0E0E05ABB
:1008FA00FE4FE081A981AE0FEBDF59804880229636
:10090A000895A2E00E94BF06ACE0E2DFA1E00E94E7
:10091A00BF06E0E04E2E5E2E0895AA93A881AA3063
:10092A0011F0571448F0E0E0EA934394A42DDCDF79
:10093A00A881AA3009F442C05394909AA881C8DFCA
:10094A0090983CC0BA93AA931A93A981BA81ED915F
:10095A00A983BA831E2FE03019F0A12FDEDFF5CF6D
:10096A00188123960895AA93E1B3E06FE1BB8A9AAE
:10097A00889A899A9298909891987880E881E05814
:10098A00E0936201E881E054E0936301A4E1B0E0FE
:10099A000E94F5060E94C5060E94C5060E94C50669
:1009AA00A0E282DF81E28A95F1F7A8E291DFA4E072
:1009BA008FDFA5E88DDFA6E08BDFA3DF2196089500
:1009CA00BA93AA93E991F991A991B991CD010590A8
:1009DA000D920020E1F7FC010895BA93AA93A99118
:1009EA00B991EE27FF276D91662311F03196FBCF5F
:1009FA000895BA93AA93AA27BB27E991F99105907A
:100A0A00002011F01196FBCFFD0108950E943109D3
:100A1A007B816A81F981E88177FB770F67FD7160D5
:100A2A00972F9E5781F078F0983190F4AA27BB2728
:100A3A00882708948795B795A7959A95D1F7EA23B9
:100A4A00FB23682305C0E8947727EE27FF2766274C
:100A5A006F77769508F4606877F9A991B9918991C9
:100A6A009991EA17FB076807790797FB08950E948F
:100A7A0031090E9422090E940B050E94270919F4D4
:100A8A000E941D0909C0E6F70E941D09A0E0B0E016
:100A9A0080E89FE30E949E0724960895A6D0E0E08E
:100AAA00EA83EFE3EB831A930A93EB85FC85EF3F26
:100ABA00AFEFFA0731F46BD1ACE6B0E00E94E5047F
:100ACA008AC0EF3FAFE7FA0731F461D1ADE6B0E093
:100ADA000E94E50480C0AC85AA2352F4E985FA8510
:100AEA006B857C850E94FF0657D15BD1EDE2EC93C2
:100AFA00A885A73010F0E6E0E8871885E12F1150A5
:100B0A00E03021F055D1B6D058D1F8CF5BD10E9450
:100B1A00A50742D110E0E0E0F0E060E87FE34DD1C4
:100B2A0051D10E94880868F043D191D046D11F5F05
:100B3A00173230F02CD1A1E7B0E00E94E5044BC097
:100B4A00EFCF103021F42DD1E0E3EC9320C0E12F58
:100B5A001150E030E1F02CD18DD085D0DF01CB01EE
:100B6A000E943C052AD12ED10E9443080E943207D6
:100B7A000E2F17D18DD0F0E01BD10E94BA080E9427
:100B8A006B070E94F50727D188D006D1E0CFE88508
:100B9A00E030E9F006D1EEE2EC93E885E150E8872F
:100BAA00EF5FA9F018D153D0F7D0E985FA856B85A4
:100BBA007C850E9432070E2FF4D06AD0F0E00BD168
:100BCA000E94BA080E946B0768D0E6D0E6CFAE81D1
:100BDA00BF81E0E0EC93198108812D960895ED918B
:100BEA00FD913196FE93EE930895BA93AA932497B2
:100BFA00E0E0E883E9830895AC81BD818E819F811D
:100C0A00E0E0F0E060E271E40E94F507EC83FD8326
:100C1A006E837F830895EC81FD816E817F81AC852F
:100C2A00BD858E859F850E9488080895AC85BD85FF
:100C3A008E859F850895EDECFCEC6CEC7DE30E94BB
:100C4A00F507EC87FD876E877F873F5F0895E0E0B1
:100C5A00F0E060E271E40E94F5070895EC87FD87F1
:100C6A006E877F870895A0E0B0E080E09FE30E944E
:100C7A00A5070895EDECFCEC6CEC7DE30E94F5070A
:100C8A000895A885B9851196A887B98711970895F7
:100C9A00E02FE05DEC93E02F08950E9436090E9450
:100CAA009E070895E885F9853196E887F9870895BA
:100CBA002A93AF81B885E985FA8509950895FE01D9
:100CCA00E65AFF4F0190F081E02D08953497DE0136
:100CDA00A65ABF4FED93FC930895AF81B885E98575
:100CEA00FA8509950895DE01A65ABF4F0D90BC9169
:100CFA00A02D0895EA87FB876C877D870895DFDF3B
:100D0A00E5CFEA85FB856C857D850895EE87FF87AB
:100D1A00AE85BF850E94F2041E2F0895E4DF149663
:100D2A000E9413090895E88BF98B6A8B7B8B0895CF
:100D3A000B7FED89EA93DE01A95ABF4F0D90BC9152
:100D4A00A02DFE01E75AFF4F0190F081E02D099591
:100D5A0050300895E889F9896A897B89AA85BB8513
:100D6A008C859D850895DE011C960E94A8080E9424
:100D7A00130908950E946D04A3E0B0E00C94F506EF
:100D8A00A0E30E94590481E28A95F1F70895EE8161
:100D9A00FF81FA93EA930895E987FA876B877C873C
:100DAA000895AE81BF811196AE83BF8311970895CE
:100DBA00AA81BB818C819D810895EA83FB836C8320
:100DCA007D830895EA81FB816C817D81A985BA853D
:100DDA008B859C850895A985BA858B859C85089500
:100DEA00109639F0A8958AEF90E00197F1F71197DC
:100DFA00C9F7089530976040704009F07058089517
:100E0A00552342F4503811F4E0FF04C03196691FAB
:100E1A00791F6BF050E8572711F45F93CFC05F3FFB
:100E2A0031F0660F000C57956795752F08955F93FB
:100E3A0000200AF0CFC0C8C050E8192E1522880F2A
:100E4A00991F9527550F879550E8072E0522660F9B
:100E5A00771F7527550F67950895689401C0E89420
:100E6A005F93F2DF703818F07F3F08F4A7C056E1AD
:100E7A00571BAAF4519558300EF4593030F0EFEF61
:100E8A00FFEF6FEF7FE777F91AC077275523B9F09D
:100E9A00EE0FFF1F661F771F5A95D1F710C07727ED
:100EAA00583028F0EF2FF62F672F5850F9CF5523D7
:100EBA0031F076956795F795E7955A95D1F7002021
:100ECA000AF445D15F910895689401C0E894309777
:100EDA0060407040B1F0002426F0772312F40094A9
:100EEA0036D1172E7EE1112032F07A95EE0FFF1FD0
:100EFA00661F111CF9CFEF2FF62F612D5F938ADF42
:100F0A005F9108954F93AF01FD01DA01AB01BC0176
:100F1A00CA01402D012C142E4F910895EA0FFB1F90
:100F2A00681F0895E095F0956095EF5FFF4F6F4F4A
:100F3A0008955F9381DF903871F150E8152604C057
:100F4A005F937ADF903839F1703821F1572F591BA6
:100F5A002BF112F4D7DFFACF583118F0AA27BB27A2
:100F6A008827583028F0AB2FB82F88275850F9CF48
:100F7A00552329F08695B795A7955A95D9F7502DF7
:100F8A00512572F0CBDF38F46795F795E79573959D
:100F9A0013F420C0B7DF3EDF5F910895D8F7FBCF87
:100FAA00EA1BFB0B680B51F010F40094BBDF6623BD
:100FBA0092F3EE0FFF1F661F7A95CBF7EE27FF27F6
:100FCA00662777275F910895EFEFFFEF6FE77FEFCF
:100FDA005F910895EFEFFFEF6FE77FE75F91089565
:100FEA005F932ADF703851F3903841F30124089453
:100FFA00791F23F41CF300203AF3ECCF0F921F93CE
:10100A002F933F934F93112722279927689FA00177
:10101A008F9F302D410D591F6B9F300D411D591F58
:10102A008E9F27D0BF9F25D06A9F23D0BE9F1DD0F9
:10103A00AF9F1BD0AE9F110D291F391F491F591F82
:10104A00E32FF42F652F522F4F913F912F911F912C
:10105A000F9066232AF0550FEE1FFF1F661F02C06E
:10106A0073954BF2CDDE5F910895100D211D391F46
:10107A0002C0200D311D491F591F08955F93DCDE00
:10108A00703821F411200AF49FCFA4CF903809F4C4
:10109A0095CF01240894970B1BF4D4F30020F3CFC7
:1010AA00792F1F932F933F934F93112411272227B0
:1010BA0033274427552790E2AE17BF078607410713
:1010CA0030F0AE1BBF0B860B410B089401C088940D
:1010DA00551F221F331F111CAA1FBB1F881F441F25
:1010EA009A9551F7F901612D4F913F912F911F91D7
:1010FA00662332F0550FEE1FFF1F661F7A9543F2E3
:10110A007FDE5F91089599239AF0772342F097172B
:10111A0048F029F4AE17BF07860720F031F09894FB
:10112A008894089598940894089518948894089532
:10113A007723C2F7971798F3A9F7EA17FB07680707
:10114A0088F399F3ECCF0024AF0DB01D0895F09504
:10115A0060957095E195FF4F6F4F7F4F0895FE2F71
:10116A00FF0FFF0B6F2F7F2F08956F2F660F660BF0
:10117A00762F0895002498E0AA0F001C0E1A10F486
:10118A000E0E01C0A1609A95B9F7EA2FA02D089515
:10119A0039D0F0DF0EF4E19508953F934F935F93B2
:1011AA00002411244427552730E2AA0FBB1F881FA9
:1011BA00991F001C111C441F551F0E1A1F0A460BAB
:1011CA00570B28F40E0E1F1E461F571F01C0A160A1
:1011DA003A9559F7FD01BC01D001CA015F914F91BF
:1011EA003F910895E894A7FF02C0A1956894E7FD8E
:1011FA00E195C0DFEA2F0EF4E1950895CEDFFD01F7
:10120A00BC010895E894E7FF02C0E1956894A7FF3E
:10121A0004C0A19500F8039400FA0895ED91FC9199
:10122A0011970895ED91FD916D917C911397089511
:10123A00E881F9816A817B810895A881B9818A81CF
:10124A009B810895E883F9836A837B8308957A935F
:10125A006A93FA93EA9308959A938A93BA93AA930C
:10126A000895182E862F612D192E972F712D1B2E5A
:10127A00BF2FF12D1A2EAE2FE12D08953097604021
:10128A00704008955A934A933A932A931A930A9369
:10129A0008955D814C813B812A81198108810895D5
:00000001FF
